:100000000C9460030C947D030C947D030C947D038D
:100010000C947D030C947D030C947D030C947D0360
:100020000C947D030C947D030C947D030C947D0350
:100030000C947D030C947D030C947D030C947D0340
:100040000C947D030C947D030C947D030C947D0330
:100050000C947D030C947D030C947D030C947D0320
:100060000C947D030C947D030C947D030C947D0310
:1000700000000000005C00000C000C007C287C28C4
:1000800058DC68002410480028542840000C000068
:10009000007884008478000054385400107C1000EC
:1000A00080400000101010000040000060100C00A4
:1000B00038543800487C40004864580044542C00B0
:1000C0001C107C005C5424003854240064140C0080
:1000D00068542C0048543800004800008048000054
:1000E0001028440028282800442810000454080040
:1000F00038445C00781478007C5428003844280088
:100100007C4438007C5444007C140400384474005F
:100110007C107C00447C440020403C007C106C003F
:100120007C4040007C187C0078103C00384438004B
:100130007C1408003844B8007C146800485424003B
:10014000047C04007C407C003C603C007C307C00F3
:100150006C106C000C700C0064544C00007C44006B
:100160000C106000447C00000804080080808000BF
:1001700000040800304878007C48300030484800CF
:1001800030487C00306850001078140090A8780047
:100190007C08700050744000808074007C106800FF
:1001A000447C4000781078007808700030483000B7
:1001B000F82810003048F80078100800505828003F
:1001C000083C4800384078003840380078207800F3
:1001D0004830480098A0780048685800107884009B
:1001E000007C00008478100008040804000000006F
:1001F0000000005F00000007000700147F147F1458
:10020000242A7F2A1223130864623649552250009B
:1002100005030000001C2241000041221C00082AA6
:100220001C2A0808083E080800503000000808088A
:100230000808006060000020100804023E51494593
:100240003E00427F400042615149462141454B31C9
:100250001814127F1027454545393C4A4949300159
:10026000710905033649494936064949291E0036B0
:100270003600000056360000000814224114141401
:10028000141441221408000201510906324979412F
:100290003E7E1111117E7F494949363E414141223E
:1002A0007F4141221C7F494949417F090901013EA3
:1002B000414151327F0808087F00417F41002040C2
:1002C000413F017F081422417F404040407F0204AB
:1002D000027F7F0408107F3E4141413E7F090909AA
:1002E000063E4151215E7F09192946464949493157
:1002F00001017F01013F4040403F1F2040201F7F00
:100300002018207F631408146303047804036151E8
:1003100049454300007F4141020408102041417FCC
:100320000000040201020440404040400001020479
:100330000020545454787F4844443838444444207E
:10034000384444487F3854545418087E0901020840
:100350001454543C7F0804047800447D400020403D
:10036000443D00007F10284400417F40007C041879
:1003700004787C0804047838444444387C14141409
:1003800008081414187C7C080404084854545420A9
:10039000043F4440203C4040207C1C2040201C3C2A
:1003A0004030403C44281028440C5050503C446499
:1003B000544C44000836410000007F0000004136E4
:1003C000080002010302010000000000000000001C
:1003D000065F5F0600000000070700070700001423
:1003E0007F7F147F7F1400242E6B6B3A120000462F
:1003F0006630180C666200307A4F5D377A48000428
:1004000007030000000000001C3E634100000000E4
:1004100041633E1C000000082A3E1C1C3E2A0808BE
:10042000083E3E0808000000A0E060000000000850
:100430000808080808000000006060000000006074
:1004400030180C060301003E7F594D7F3E000042EC
:10045000427F7F40400000627359496F660000226E
:100460006349497F360000181C16137F7F10002750
:100470006745457D3900003C7E4B497930000003DB
:100480006371190F070000367F49497F3600000667
:100490004F49693F1E000000006C6C000000000026
:1004A000A0EC6C00000000081C3663410000001442
:1004B00014141414140000004163361C08000002D8
:1004C0000351590F0600003E7F415D5D1F1E007CF9
:1004D0007E13137E7C0000417F7F49497F36001CDC
:1004E0003E634141632200417F7F41637F1C0041A5
:1004F0007F7F495D416300417F7F491D0103001CEF
:100500003E6341517372007F7F08087F7F000000C7
:10051000417F7F41000000307040417F3F0100413A
:100520007F7F081C776300417F7F41406070007FC0
:100530007F060C067F7F007F7F060C187F7F001CE4
:100540003E6341633E1C00417F7F49090F06001E48
:100550003F21717F5E0000417F7F19396F46002681
:10056000674D597B32000003417F7F410300007FCC
:100570007F40407F7F00001F3F60603F1F00007F83
:100580007F3018307F7F0063771C081C776300077B
:100590004F78784F0700006773594D47637100002B
:1005A0007F7F4141000000010306317D00000041D2
:1005B0007F7F10386C440000417F7F400000007C4A
:1005C0007C0C180C7C78007C7C04047C780000385F
:1005D0007C44447C38000084FCF8A4243C180018B7
:1005E0003C24A4F8FC8400447C78441C1800004897
:1005F0005C54547424000000043E7F442400003CFA
:100600007C40403C7C40001C3C60603C1C00003C4A
:100610007C6030607C3C00446C3810386C44009C3A
:10062000BCA0A0FC7C00004C64745C4C640000081E
:10063000083E77414100000000007777000000414C
:1006400041773E0808000002030103020301000095
:10065000000000000000000000000000000000009A
:10066000000000000000000000000000000000008A
:10067000000000000000000000000000000000007A
:10068000000000000000000000000000000000006A
:10069000000000000000000000000000000000005A
:1006A000000000000000000000000000000000004A
:1006B000000000000000000000000000000000003A
:1006C00011241FBECFEFD4E0DEBFCDBF13E0A0E00A
:1006D000B1E0EAE6F9E202C005900D92A830B10758
:1006E000D9F723E0A8E0B3E001C01D92A631B2071C
:1006F000E1F70E947F030C94B3140C9400000F9355
:100700001F93CF93DF938FE190E00E94F6030E9446
:10071000050461E074E08DEF93E00E94B30F0E9446
:100720008D040E94850A0E941A0B80E00E94140B1F
:1007300060E074E182E00E94A004C82F60E074E1F0
:1007400083E00E94A004D82F80910A0390910B03AC
:10075000892B61F44D2F6C2F80E094E10E94DA091F
:1007600080910A0390910B03892BA1F386E191E01C
:100770009F938F930E94FE0F0F900F9003E010E065
:100780004D2F6C2F80E094E10E94A70C01501109BD
:10079000B9F780910A0190910B01892B79F417C068
:1007A000833391056CF04D2F6C2F80E094E10E9413
:1007B0005F0C0E94D00C80E090E002C080E090E0EE
:1007C000019620910A0130910B01232B49F70E94D9
:1007D000270A82E291E09F938F930E94FE0F0F9071
:1007E0000F90DF91CF911F910F91089590BD89B91E
:1007F00088E18AB98EE880BD08955D9BFECF8CB9F3
:1008000008955F9BFECF8CB1089580E885BF80E29C
:1008100080BF0895CF92DF92EF92FF920F931F93C4
:10082000CF93DF9386E391E00E9414100E94A30F00
:100830007C010E94A80FC12CD12C00E010E0CCE478
:10084000D1E00E94A30FF601F85E80832081281773
:10085000A9F099279F938F931F922F93DF92CF92A6
:10086000DF93CF930E94FE0F0F5F1F4F8DB79EB790
:1008700008960FB6F8949EBF0FBE8DBF9FEFC91AA2
:10088000D90AC11488E0D806E1F6C7010E94A80F72
:10089000C0E0D0E0E12CF12C0F2EF6E8CF2EF1E0F5
:1008A000DF2EF02D0E94A30FFE01F85E2081281795
:1008B000B1F099279F938F931F922F93DF93CF933C
:1008C000DF92CF920E94FE0F9FEFE91AF90A8DB7CF
:1008D0009EB708960FB6F8949EBF0FBE8DBF2196A7
:1008E000C11598E0D907F1F6FF92EF921F930F938D
:1008F00084EC91E09F938F930E94FE0F0F900F90D6
:100900000F900F900F900F90DF91CF911F910F914B
:10091000FF90EF90DF90CF9008958C9AEBE8F0E095
:10092000808183608083AAE8B0E08C9189618C9398
:1009300080818064808310928700109286000895E1
:10094000FB0194E0908391E29A95F1F700004081D9
:10095000908120813081E7EAF1E63197F1F700C01C
:100960000000813031F060F0823029F0833029F0CE
:1009700006C0842F0895832F0895822F0895089527
:10098000892F08954F925F926F927F928F929F92DC
:10099000AF92BF92CF92DF92EF92FF920F931F938D
:1009A000CF93DF93EC01A42E82E00E94A004B82E26
:1009B0000A2D10E0B801012E000C880B990B0E9443
:1009C000350E6B017C01BA1490F520E030E04BE16C
:1009D00053E40E94200D2B013C016B2D70E080E060
:1009E00090E00E94350EA30192010E94200D4B0160
:1009F0005C01A3019201C701B6010E94200D9B0179
:100A0000AC01C501B4010E94920D20E030E048EC39
:100A100052E40E94EA0E9B01AC0160E070E088ECB9
:100A200092E40E94200D6B017C01188224C06B2D82
:100A300070E0601B710B072E000C880B990B0E9455
:100A4000350E2B013C01A701960160E070E08FE7B5
:100A500093E40E94200D9B01AC01C301B2010E94EE
:100A6000920D20E030E048EC52E40E94EA0E6B0167
:100A70007C0181E0888320E030E040EA50E4C70157
:100A8000B6010E948D0D882334F482E08883C12C46
:100A9000D12C760120C020E030E040EA50E4C701CC
:100AA000B6010E948D0D88239CF020E030E04EEBD3
:100AB00052E4C701B6010E94E50E181664F40F2E29
:100AC000C12CD12CF8ECEF2EF2E4FF2EF02D03C058
:100AD000C12CD12C7601C701B6010E94040E862FCD
:100AE000DF91CF911F910F91FF90EF90DF90CF900A
:100AF000BF90AF909F908F907F906F905F904F903E
:100B000008954F925F926F927F928F929F92AF92D1
:100B1000BF92CF92DF92EF92FF920F931F93CF93EA
:100B2000DF93D42FBC0183E00E94A004C82F0D2FB7
:100B300010E0B801012E000C880B990B0E94350EB5
:100B40006B017C01CD1748F520E030E04BE153E428
:100B50000E94200D4B015C016C2F70E080E090E062
:100B60000E94350EA50194010E94200D2B013C012D
:100B7000A5019401C701B6010E94200D9B01AC01A3
:100B8000C301B2010E94920D20E030E048E452E43B
:100B90000E94EA0E6B017C012BC0DC1708F045C0F7
:100BA0006C2F70E0601B710B072E000C880B990BEB
:100BB0000E94350E4B015C01A701960160E070E0D8
:100BC0008FE793E40E94200D9B01AC01C501B401A5
:100BD0000E94920D20E030E048E452E40E94EA0EC8
:100BE00020E030E048E452E40E94210D6B017C01DA
:100BF00020E030E040EA50E4C701B6010E948D0DCC
:100C00008823E4F020E030E04EEB52E4C701B60167
:100C10000E94E50E1816ACF40F2EC12CD12CF8EC66
:100C2000EF2EF2E4FF2EF02D0CC00F2EC12CD12C94
:100C3000F8E4EF2EF2E4FF2EF02D03C0C12CD12CEE
:100C40007601C701B6010E94040E862FDF91CF9175
:100C50001F910F91FF90EF90DF90CF90BF90AF90DA
:100C60009F908F907F906F905F904F900895BC0100
:100C700080E00E94A004853B80F4682F70E06851FA
:100C8000710922E3269FC001279F900D11246CE972
:100C900070E00E94F80C862F0895682F70E0645B66
:100CA0007109072E000C880B990B0E94350E20E06D
:100CB00030E040EC5FE30E94920D20E030E048E439
:100CC00052E40E94210D0E94040E862F0895BC015B
:100CD00081E00E94A004853B80F4682F70E0685199
:100CE000710922E3269FC001279F900D11246CE912
:100CF00070E00E94F80C862F0895682F70E0645B06
:100D00007109072E000C880B990B0E94350E20E00C
:100D100030E040EC5FE30E94920D20E030E048E4D8
:100D200052E40E94210D0E94040E862F0895DF9246
:100D3000EF92FF920F931F93CF93DF931F92CDB744
:100D4000DEB78C01F62ED42E242F462FBC01CE0107
:100D500001960E94C204E82E4D2D6F2DC8010E94FD
:100D600081052E2D30E022533109B90122F4662786
:100D70007727621B730B282F30E022533109A9011A
:100D800022F444275527421B530B4617570744F4B8
:100D900087E28E1558F480E58E1550F084E00DC082
:100DA000883240F0813540F484E007C080E005C01F
:100DB00081E003C082E001C083E00F90DF91CF911A
:100DC0001F910F91FF90EF90DF9008950E9497067A
:100DD0008230E9F028F4882341F0813079F00895D9
:100DE0008330F1F0843029F108958FE192E09F93F0
:100DF0008F930E94FE0F0F900F90089586E292E06D
:100E00009F938F930E94FE0F0F900F9008958EE294
:100E100092E09F938F930E94FE0F0F900F90089582
:100E200085E392E09F938F930E94FE0F0F900F90A7
:100E300008958AE392E09F938F930E94FE0F0F9094
:100E40000F900895809300100895809300120895E4
:100E5000E0E0F0E18EEA808381EA80838AED80839E
:100E600082E1808388EC808388EA80838FE38083BB
:100E700085ED808380E8808381E8808380E58083BE
:100E800089ED808381E2808380E2808382E08083B9
:100E90008BED808380E380838DEA8083108284EAF7
:100EA000808386EA80838FEA8083089520EBA0E028
:100EB000B0E130E1E0E0F2E12C931C923C9380E859
:100EC00090E010820197E9F72F5F283BA9F708957A
:100ED0008055809300100895982F9F70E0E0F0E116
:100EE000908382958F70805F808308958052082E52
:100EF000000C990BFC01EE0FFF1FEE0FFF1FEE0F12
:100F0000FF1FE953FC4F880F991F880F991F880F07
:100F1000991F9C0121533C4FA0E0B2E194919C9316
:100F20003196E217F307D1F70895EF92FF920F93EE
:100F30001F93CF93DF938C017C01C0E0D0E006C00B
:100F4000F70181917F010E9476072196F8010190B7
:100F50000020E9F73197E01BF10BCE17DF0780F394
:100F6000DF91CF911F910F91FF90EF900895DF9245
:100F7000EF92FF920F931F93CF93DF93CDB7DEB71E
:100F8000A9970FB6F894DEBF0FBECDBFD82E0E9432
:100F900028078DE29EE39A8389831B8285E0E4E43F
:100FA000F2E0DE01149601900D928A95E1F78BE054
:100FB000E9E4F2E0DE01199601900D928A95E1F7DD
:100FC0008BE0E4E5F2E0DE01549601900D928A9503
:100FD000E1F78BE0EFE5F2E0DE015F9601900D9224
:100FE0008A95E1F70E94560700E010E181EBF801D5
:100FF00080830F2EF9E0EF2EF02DE0820F2EF1E12D
:10100000FF2EF02DF082CE0104960E94950782EB10
:10101000F8018083E082F082CE0109960E94950754
:1010200083EBF8018083E082F082CE0144960E9437
:10103000950784EBF8018083E082F082CE014F9621
:101040000E94950780EB8D0DF801808385E08083F9
:1010500080E18083CE0101960E9495078D2DA9968F
:101060000FB6F894DEBF0FBECDBFDF91CF911F91B9
:101070000F91FF90EF90DF90089586B38695869547
:1010800091E08927817090E00895DF92EF92FF92BE
:101090000F931F93CF93DF93CDB7DEB769970FB64A
:1010A000F894DEBF0FBECDBF06C087EA91E6019778
:1010B000F1F700C000000E943D08892BB1F70E94A3
:1010C00028078BE0EAE6F2E0DE01119601900D922E
:1010D0008A95E1F78BE0E5E7F2E0DE011C960190EE
:1010E0000D928A95E1F78DE29EE3988F8F8B198E92
:1010F0000E94560700E010E181EBF80180830F2E7B
:10110000F9E0DF2EF02DD0820F2EF1E1EF2EF02D41
:10111000E082CE0101960E9495070F2EF2EBFF2E82
:10112000F02DF801F082D082E082CE010C960E9470
:101130009507F801F08285E0808380E18083CE010D
:1011400047960E9495070E943D08892BE1F306C04F
:1011500087EA91E60197F1F700C000000E943D0880
:10116000892BB1F781E090E090930B0380930A0301
:1011700082E00E94B70769960FB6F894DEBF0FBEF3
:10118000CDBFDF91CF911F910F91FF90EF90DF9036
:101190000895DF92EF92FF920F931F93CF93DF9307
:1011A000CDB7DEB763970FB6F894DEBF0FBECDBFE5
:1011B00006C087EA91E60197F1F700C000000E949F
:1011C0003D08892BB1F70E9428078BE0E0E8F2E0A8
:1011D000DE01119601900D928A95E1F785E0EBE82A
:1011E000F2E0DE011C9601900D928A95E1F78DE206
:1011F0009EE39A8B898B1B8A0E94560700E010E1C0
:1012000081EBF80180830F2EF9E0DF2EF02DD082E4
:101210000F2EF1E1EF2EF02DE082CE0101960E941B
:1012200095070F2EF2EBFF2EF02DF801F082D08201
:10123000E082CE010C960E949507F801F08285E0CD
:10124000808380E18083CE0141960E9495070E94B1
:101250003D08892BE1F306C087EA91E60197F1F793
:1012600000C000000E943D08892BB1F783E00E9476
:10127000B70763960FB6F894DEBF0FBECDBFDF9100
:10128000CF911F910F91FF90EF90DF900895DF9223
:10129000EF92FF920F931F93CF93DF93CDB7DEB7FB
:1012A00063970FB6F894DEBF0FBECDBF06C087EAC6
:1012B00091E60197F1F700C000000E943D08892BDC
:1012C000B1F70E9428078BE0E0E9F2E0DE01119619
:1012D00001900D928A95E1F785E0EBE8F2E0DE01FE
:1012E0001C9601900D928A95E1F78DE29EE39A8B10
:1012F000898B1B8A0E94560700E010E181EBF80100
:1013000080830F2EF9E0DF2EF02DD0820F2EF1E139
:10131000EF2EF02DE082CE0101960E9495070F2E50
:10132000F2EBFF2EF02DF801F082D082E082CE01A8
:101330000C960E949507F801F08285E0808380E199
:101340008083CE0141960E9495070E943D08892B1B
:10135000E1F306C087EA91E60197F1F700C00000CB
:101360000E943D08892BB1F784E00E94B70763967D
:101370000FB6F894DEBF0FBECDBFDF91CF911F91A6
:101380000F91FF90EF90DF900895CF93C62F642FB9
:10139000422F0E949706823019F0833029F007C04F
:1013A000C43028F4CF5F03C0C33008F0C1508C2F85
:1013B000CF910895EF92FF920F931F93CF93DF93F6
:1013C0007C01062F142FBA98C29A82E00E94B707B8
:1013D000C2E0212F402F6C2FC7010E94C509D82FD2
:1013E000C81769F00E94B7072FE58AEE90E02150F8
:1013F00080409040E1F700C00000CD2F1AC00E944D
:101400003D08892B29F0C23019F40E94450818C004
:101410000E943D08892B29F0C33019F40E94C908A5
:1014200008C00E943D08892B21F0C43011F40E94AD
:1014300047098FE493EC0197F1F700C00000C9CF92
:10144000DF91CF911F910F91FF90EF900895CF936F
:10145000DF93CDB7DEB728970FB6F894DEBF0FBE87
:10146000CDBF0E94280788E0EBE9F2E0DE0111968B
:1014700001900D928A95E1F70E945607E0E0F0E1B5
:1014800081EB808389E0808381E18083CE010196B6
:101490000E94950728960FB6F894DEBF0FBECDBF09
:1014A000DF91CF9108958FB9779BFECF08958FEF8D
:1014B0008FB9779BFECF8FB10895C49A089580E1CC
:1014C00087BB87B3806A87BB81ED8DB90E945D0AB7
:1014D0000895C49808950E94690A80EC0E94530AF6
:1014E0000E945D0A0895CF93C82F0E94690A83E085
:1014F0000E94530A8C2F0E94530A0E94570AC82F39
:101500000E945D0A8C2FCF910895CF93DF930E94A4
:101510005F0A0E946B0A83EC99E00197F1F700C023
:1015200000008EE00E94730A982F907E9038D9F0C8
:101530001F928F9383EA92E09F938F930E94FE0FF6
:10154000C5EBD2E0DF93CF930E94FE0FDF93CF93E2
:101550000E94FE0F8DB79EB708960FB6F8949EBFF7
:101560000FBE8DBF08C088EB92E09F938F930E94BF
:10157000FE0F0F900F90DF91CF910895CF93DF93DF
:10158000D82FC62F0E94690A82E00E94530A8D2F2D
:101590000E94530A8C2F0E94530A0E945D0ADF9119
:1015A000CF910895CF930E94690A80EA0E94530A5E
:1015B0000E94570AC82F0E945D0A8C2FCF91089570
:1015C0001F93CF93DF93182FD62FC42F0E94690A41
:1015D00085E00E94530A812F0E94530A8D2F0E949A
:1015E000530A8C2F0E94530A0E945D0ADF91CF910B
:1015F0001F910895CF93DF93EC010E94690ACE01F9
:1016000063E070E00E94F80C009721F0019721F050
:1016100084E803C081E801C082E80E94530A0E9466
:101620005D0ADF91CF910895482F60EE8FE00E9410
:10163000E00A089561E48AE20E94BE0A6DEB89E245
:101640000E94BE0A61E088E20E94BE0A0895CF921D
:10165000DF92EF92FF921F93CF93DF936C01FC0117
:101660006081718176956795769567957695679592
:1016700081E30E94BE0AF60160816295660F607E7A
:1016800082E30E94BE0AF601628185E30E94BE0ADF
:10169000F6018281938118161906ACF47601F4E004
:1016A000EF0EF11C16E3C0E0D0E0F70161917F017D
:1016B000812F0E94BE0A21961F5FF60182819381CD
:1016C000C817D90794F380E090E00E94FA0ADF91EE
:1016D000CF911F91FF90EF90DF90CF9008959F9250
:1016E000AF92BF92CF92DF92EF92FF920F931F9330
:1016F000CF93DF93CDB7DEB72A970FB6F894DEBF4E
:101700000FBECDBF5C01FE0131968AE0DF011D9264
:101710008A95E9F782E60E94730A082F81E60E9403
:10172000730A029506950770880F880F880F080FB7
:1017300085E60E94730A982E8823A9F07E01B3E003
:10174000EB0EF11C9E01280F311DF90133966F013C
:1017500016E6812F0E94730AD7018D937D011F5FCA
:10176000AC15BD05B1F71F920F9383ED92E09F93E7
:101770008F930E94FE0F09839A828AE0FE013196C0
:10178000D50101900D928A95E1F70F900F900F907F
:101790000F90C5012A960FB6F894DEBF0FBECDBFDD
:1017A000DF91CF911F910F91FF90EF90DF90CF903D
:1017B000BF90AF909F900895EF92FF920F931F9369
:1017C000CF93DF93CDB7DEB72C970FB6F894DEBF7B
:1017D0000FBECDBFE9820B831C832D83FF928981CD
:1017E0008F9383ED92E09F938F930E94FE0F8C81E5
:1017F0008F938B818F9384EE92E09F938F930E94BF
:10180000FE0F8D81282F082E000C330B3F938F93F2
:1018100089EF92E09F938F930E94FE0F82E093E006
:101820009F938F930E94FE0F0FB6F894DEBF0FBEFA
:10183000CDBF2C960FB6F894DEBF0FBECDBFDF91A3
:10184000CF911F910F91FF90EF9008950F931F93E9
:10185000CF93DF93CDB7DEB72C970FB6F894DEBFEA
:101860000FBECDBF8C01FE0131968CE0DF011D92D1
:101870008A95E9F71416150654F4F901DE01159658
:10188000240F351F91919D93E217F307D9F77A83BF
:1018900069835C834B838CE0FE013196D801019013
:1018A0000D928A95E1F7C8012C960FB6F894DEBF29
:1018B0000FBECDBFDF91CF911F910F910895EF9291
:1018C000FF920F931F93CF93DF93CDB7DEB764974B
:1018D0000FB6F894DEBF0FBECDBF8C01F62EE42EFE
:1018E00082E08983242F462FB801CE0101960E9401
:1018F000C2048A834E2D6F2DC8010E9481058B83FF
:101900000E943D088C838A818D8389818E838B819F
:101910008F838C8188879E012B5F3F4F44E050E08E
:1019200061E070E0CE0109960E94260CCE01099676
:101930000E94270B64960FB6F894DEBF0FBECDBF92
:10194000DF91CF911F910F91FF90EF900895CF936A
:10195000DF93CDB7DEB761970FB6F894DEBF0FBE49
:10196000CDBF198282E08A831B821C8281E08D8335
:101970009E012F5F3F4F45E050E061E070E0CE01F7
:1019800006960E94260CCE0106960E94270B6196B1
:101990000FB6F894DEBF0FBECDBFDF91CF91089593
:1019A000CF93DF93CDB7DEB72A970FB6F894DEBF9B
:1019B0000FBECDBFCE0101960E946F0B8AE0FE01E3
:1019C0003196A0E0B1E001900D928A95E1F7809107
:1019D0000001863021F410920B0110920A012A9620
:1019E0000FB6F894DEBF0FBECDBFDF91CF91089543
:1019F00097FB072E16F4009407D077FD09D00E94BC
:101A00000C0D07FC05D03EF4909581959F4F0895ED
:101A1000709561957F4F0895AA1BBB1B51E107C0CC
:101A2000AA1FBB1FA617B70710F0A61BB70B881F6E
:101A3000991F5A95A9F780959095BC01CD010895FD
:101A40005058BB27AA270E94380D0C94AB0E0E9459
:101A50009D0E38F00E94A40E20F039F49F3F19F437
:101A600026F40C949A0E0EF4E095E7FB0C94940E79
:101A7000E92F0E94BC0E58F3BA1762077307840758
:101A8000950720F079F4A6F50C94DE0E0EF4E0959F
:101A90000B2EBA2FA02D0B01B90190010C01CA0128
:101AA000A0011124FF27591B99F0593F50F4503ED3
:101AB00068F11A16F040A22F232F342F4427585FC5
:101AC000F3CF469537952795A795F0405395C9F7DD
:101AD0007EF41F16BA0B620B730B840BBAF0915095
:101AE000A1F0FF0FBB1F661F771F881FC2F70EC034
:101AF000BA0F621F731F841F48F487957795679507
:101B0000B795F7959E3F08F0B0CF9395880F08F0F2
:101B10009927EE0F9795879508950E94700E08F407
:101B200081E008950E94A60D0C94AB0E0E94A40EB5
:101B300058F00E949D0E40F029F45F3F29F00C946C
:101B4000940E51110C94DF0E0C949A0E0E94BC0E50
:101B500068F39923B1F3552391F3951B550BBB27DC
:101B6000AA2762177307840738F09F5F5F4F220F21
:101B7000331F441FAA1FA9F335D00E2E3AF0E0E818
:101B800032D091505040E695001CCAF72BD0FE2F62
:101B900029D0660F771F881FBB1F261737074807F6
:101BA000AB07B0E809F0BB0B802DBF01FF279358AE
:101BB0005F4F3AF09E3F510578F00C94940E0C94D0
:101BC000DF0E5F3FE4F3983ED4F3869577956795F3
:101BD000B795F7959F5FC9F7880F911D96958795E3
:101BE00097F90895E1E0660F771F881FBB1F621702
:101BF00073078407BA0720F0621B730B840BBA0BC0
:101C0000EE1F88F7E09508950E94C40E88F09F5754
:101C100098F0B92F9927B751B0F0E1F0660F771F10
:101C2000881F991F1AF0BA95C9F714C0B13091F006
:101C30000E94DE0EB1E008950C94DE0E672F782F1F
:101C40008827B85F39F0B93FCCF3869577956795CB
:101C5000B395D9F73EF490958095709561957F4F37
:101C60008F4F9F4F0895E89409C097FB3EF49095DD
:101C70008095709561957F4F8F4F9F4F9923A9F065
:101C8000F92F96E9BB279395F695879577956795F4
:101C9000B795F111F8CFFAF4BB0F11F460FF1BC038
:101CA0006F5F7F4F8F4F9F4F16C0882311F096E9CB
:101CB00011C0772321F09EE8872F762F05C0662379
:101CC00071F096E8862F70E060E02AF09A95660F32
:101CD000771F881FDAF7880F9695879597F90895EB
:101CE000990F0008550FAA0BE0E8FEEF161617062D
:101CF000E807F907C0F012161306E407F50798F095
:101D0000621B730B840B950B39F40A2661F0232BAD
:101D1000242B252B21F408950A2609F4A140A69529
:101D20008FEF811D811D089597F99F6780E870E00E
:101D300060E008959FEF80EC089500240A94161641
:101D4000170618060906089500240A9412161306A9
:101D5000140605060895092E0394000C11F4882337
:101D600052F0BB0F40F4BF2B11F460FF04C06F5F53
:101D70007F4F8F4F9F4F089557FD9058440F551F29
:101D800059F05F3F71F04795880F97FB991F61F0FD
:101D90009F3F79F087950895121613061406551F74
:101DA000F2CF4695F1DF08C0161617061806991FE0
:101DB000F1CF86957105610508940895E894BB27D5
:101DC00066277727CB0197F908950E94700E08F4D3
:101DD0008FEF08950E94FD0E0C94AB0E0E949D0E95
:101DE00038F00E94A40E20F0952311F00C94940E6C
:101DF0000C949A0E11240C94DF0E0E94BC0E70F30A
:101E0000959FC1F3950F50E0551F629FF001729F9F
:101E1000BB27F00DB11D639FAA27F00DB11DAA1FAE
:101E2000649F6627B00DA11D661F829F2227B00DFB
:101E3000A11D621F739FB00DA11D621F839FA00D86
:101E4000611D221F749F3327A00D611D231F849FD6
:101E5000600D211D822F762F6A2F11249F5750402D
:101E60009AF0F1F088234AF0EE0FFF1FBB1F661FA8
:101E7000771F881F91505040A9F79E3F510580F071
:101E80000C94940E0C94DF0E5F3FE4F3983ED4F371
:101E9000869577956795B795F795E7959F5FC1F715
:101EA000FE2B880F911D9695879597F908958F922F
:101EB0009F92AF92BF92CF92DF92EF92FF92CF9319
:101EC000DF93EC01688179818A819B8161157105BD
:101ED0008105910521F464E279ED8BE597E02DE130
:101EE00033EF41E050E00E94191449015A019B016F
:101EF000AC01A7EAB1E40E9438146B017C01ACEE9E
:101F0000B4EFA50194010E944614DC01CB018C0DB5
:101F10009D1DAE1DBF1DB7FF03C00197A109B048AD
:101F200088839983AA83BB839F77DF91CF91FF90AA
:101F3000EF90DF90CF90BF90AF909F908F900895DB
:101F40000E94570F08958CE091E00E94570F08956A
:101F5000A0E0B0E080930C0190930D01A0930E01DE
:101F6000B0930F0108950F931F93CF93DF930097C2
:101F700031F46115710519F480E090E03AC08B01ED
:101F8000EC016EE070E081E090E00E942512FC011F
:101F9000892B91F380E883830115110571F0138774
:101FA000028781E8838380910C0390910D03892B34
:101FB00021F4F0930D03E0930C032097C9F0D1872F
:101FC000C08783818260838380910E0390910F0389
:101FD000892B71F4F0930F03E0930E0380911003AB
:101FE00090911103892B21F4F0931103E0931003D6
:101FF000CF01DF91CF911F910F910895A0E0B0E044
:10200000E4E0F0E10C945B14AE014B5F5F4FFA012A
:1020100061917191AF0180910E0390910F030E9425
:102020004410E2E00C9477140F931F93CF93DF9347
:10203000E0910E03F0910F03238121FF1BC08C015F
:10204000D0E0C0E0F80181918F0160910E037091A2
:102050000F03DB011896ED91FC911997882331F05D
:102060000995892B79F3DFEFCFEFECCF8AE0099563
:10207000892B19F08FEF9FEF02C08D2F9C2FDF91DE
:10208000CF911F910F910895ABE0B0E0EAE4F0E149
:102090000C944B146C017B018A01FC01178216829F
:1020A000838181FFCCC1CE0101963C01F601938171
:1020B000F70193FD859193FF81917F01882309F4B6
:1020C000BAC1853239F493FD859193FF81917F01E7
:1020D000853229F4B60190E00E947F13E7CF912C5E
:1020E000212C312CFFE1F315D8F08B3279F038F444
:1020F000803279F08332A1F4232D20611DC08D320E
:1021000061F0803369F4232D216016C0832D826035
:10211000382EE32DE4603E2E2AC0F32DF8601DC05A
:1021200037FC2DC020ED280F2A3040F08E32B9F454
:1021300036FC81C1232D2064322E19C036FE06C024
:102140008AE0989E200D1124922E11C0EAE02E9E66
:10215000200D1124222EF32DF0623F2E08C08C3664
:1021600021F4832D8068382E02C0883641F4F701AF
:1021700093FD859193FF81917F018111B3CF982FBA
:102180009F7D9554933028F40C5F1F4F9FE39983F4
:102190000DC0833631F0833771F0833509F059C0B3
:1021A00021C0F801808189830E5F1F4F88248394AA
:1021B000912C530113C02801F2E04F0E511CF8017D
:1021C000A080B18036FE03C0692D70E002C06FEFC1
:1021D0007FEFC5010E9474134C018201F32DFF773C
:1021E0003F2E16C0280122E0420E511CF801A080AB
:1021F000B18036FE03C0692D70E002C06FEF7FEF43
:10220000C5010E9462134C01F32DF0683F2E82013C
:1022100033FC1BC0822D90E088169906B0F4B601FD
:1022200080E290E00E947F132A94F4CFF50137FCFE
:10223000859137FE81915F01B60190E00E947F1386
:1022400021102A9421E0821A91088114910471F7D7
:10225000E8C0843611F0893641F5F80137FE07C031
:1022600060817181828193810C5F1F4F08C0608102
:102270007181072E000C880B990B0E5F1F4FF32DF9
:10228000FF763F2E97FF09C09095809570956195D8
:102290007F4F8F4F9F4FF0683F2E2AE030E0A30121
:1022A0000E94BB13882E861845C0853731F4232D34
:1022B0002F7EB22E2AE030E025C0932D997FB92ED3
:1022C0008F36C1F018F4883579F0B5C0803719F031
:1022D000883721F0B0C0E92FE061BE2EB4FE0DC0FA
:1022E000FB2DF460BF2E09C034FE0AC0292F2660E2
:1022F000B22E06C028E030E005C020E130E002C088
:1023000020E132E0F801B7FE07C06081718182816F
:1023100093810C5F1F4F06C06081718180E090E067
:102320000E5F1F4FA3010E94BB13882E8618FB2D42
:10233000FF773F2E36FE0DC0232D2E7FA22E89144F
:1023400058F434FE0BC032FC09C0832D8E7EA82EBB
:1023500005C0B82CA32C03C0B82C01C0B92CA4FE16
:102360000FC0FE01E80DF11D8081803321F49A2D0C
:10237000997EA92E09C0A2FE06C0B394B39404C0EE
:102380008A2D867809F0B394A3FC11C0A0FE06C084
:10239000B21488F4280C922C9B180EC0B21460F46E
:1023A000B60180E290E00E947F13B394F7CFB2149D
:1023B00018F42B1802C0982C212CA4FE10C0B601D2
:1023C00080E390E00E947F13A2FE17C0A1FC03C02F
:1023D00088E790E002C088E590E0B6010CC08A2D45
:1023E000867859F0A1FE02C08BE201C080E2A7FC12
:1023F0008DE2B60190E00E947F13891438F4B60193
:1024000080E390E00E947F139A94F7CF8A94F301BF
:10241000E80DF11D8081B60190E00E947F138110CC
:10242000F5CF222009F442CEB60180E290E00E946E
:102430007F132A94F6CFF6018681978102C08FEF31
:102440009FEF2B96E2E10C9467140F931F93CF93A9
:10245000DF93869F8001879F100D969F100D11249A
:10246000C8010E944112EC01009729F0A80160E028
:1024700070E00E946D13CE01DF91CF911F910F91FB
:1024800008950F931F93CF93DF938230910510F43B
:1024900082E090E0E0911403F091150320E030E039
:1024A000A0E0B0E0309719F14081518102811381A1
:1024B00048175907C8F08417950769F4109731F049
:1024C00012960C93129713961C9327C00093140333
:1024D0001093150322C02115310519F04217530737
:1024E00018F49A01BD01EF01DF01F801DBCF2115DE
:1024F0003105F9F0281B390B2430310580F48A812D
:102500009B816115710521F0FB019383828304C0D7
:102510009093150380931403FE01329644C0FE018C
:10252000E20FF31F8193919322503109398328835D
:102530003AC02091120330911303232B41F42091D0
:102540001201309113013093130320931203209151
:102550001001309111012115310541F42DB73EB71D
:102560004091140150911501241B350BE091120389
:10257000F0911303E217F307A0F42E1B3F0B28176B
:10258000390778F0AC014E5F5F4F2417350748F0EC
:102590004E0F5F1F50931303409312038193919347
:1025A00002C0E0E0F0E0CF01DF91CF911F910F91E9
:1025B0000895CF93DF93009709F481C0FC0132970F
:1025C00013821282A0911403B0911503109781F425
:1025D00020813181820F931F2091120330911303C8
:1025E0002817390751F5F0931303E093120367C0DE
:1025F000ED0120E030E0CE17DF0740F44A815B8137
:102600009E0141155105F1F0EA01F5CFD383C28354
:1026100040815181840F951FC817D90759F48881CB
:102620009981840F951F0296918380838A819B8173
:10263000938382832115310529F4F0931503E093E8
:1026400014033DC0E901FB83EA8349915991C40F0A
:10265000D51FEC17FD0761F480819181840F951FD0
:102660000296E90199838883828193819B838A837F
:10267000E0E0F0E012968D919C911397009719F08D
:10268000FD01DC01F7CF8D919C9111979D012E5F8B
:102690003F4F820F931F209112033091130328178D
:1026A000390769F4309729F4109215031092140336
:1026B00002C013821282B0931303A0931203DF911E
:1026C000CF910895FC010590615070400110D8F73A
:1026D000809590958E0F9F1F0895DC0101C06D932A
:1026E00041505040E0F70895FC0161507040019066
:1026F0000110D8F7809590958E0F9F1F08950F9326
:102700001F93CF93DF93FB01238121FD03C08FEF44
:102710009FEF2CC022FF16C046815781248135814E
:102720004217530744F4A081B1819D012F5F3F4FB1
:10273000318320838C93268137812F5F3F4F3783EE
:10274000268314C08B01EC01FB010084F185E02D90
:102750000995892BE1F6D80116968D919C911797D2
:10276000019617969C938E931697CE01DF91CF9189
:102770001F910F910895FA01AA27283051F12031B5
:1027800081F1E8946F936E7F6E5F7F4F8F4F9F4F05
:10279000AF4FB1E03ED0B4E03CD0670F781F891F47
:1027A0009A1FA11D680F791F8A1F911DA11D6A0F15
:1027B000711D811D911DA11D20D009F468943F91C8
:1027C0002AE0269F11243019305D3193DEF6CF01C7
:1027D0000895462F4770405D4193B3E00FD0C9F78D
:1027E000F6CF462F4F70405D4A3318F0495D31FDFA
:1027F0004052419302D0A9F7EACFB4E0A69597954D
:10280000879577956795BA95C9F700976105710522
:1028100008959B01AC010A2E06945795479537956C
:102820002795BA95C9F7620F731F841F951FA01DC6
:102830000895052E97FB1EF400940E94301457FD56
:1028400007D00E94821407FC03D04EF40C9430147D
:1028500050954095309521953F4F4F4F5F4F0895CC
:1028600090958095709561957F4F8F4F9F4F0895FC
:102870000E94A414A59F900DB49F900DA49F800D5D
:10288000911D11240895B7FF0C9438140E94381438
:10289000821B930B08952F923F924F925F926F92FB
:1028A0007F928F929F92AF92BF92CF92DF92EF92E0
:1028B000FF920F931F93CF93DF93CDB7DEB7CA1B61
:1028C000DB0B0FB6F894DEBF0FBECDBF09942A888C
:1028D000398848885F846E847D848C849B84AA8434
:1028E000B984C884DF80EE80FD800C811B81AA81C1
:1028F000B981CE0FD11D0FB6F894DEBF0FBECDBF8C
:10290000ED010895A1E21A2EAA1BBB1BFD010DC00B
:10291000AA1FBB1FEE1FFF1FA217B307E407F5078F
:1029200020F0A21BB30BE40BF50B661F771F881F6B
:10293000991F1A9469F760957095809590959B0101
:10294000AC01BD01CF010895A29FB001B39FC001AA
:10295000A39F700D811D1124911DB29F700D811DCB
:0A2960001124911D0895F894FFCF93
:10296A000101010000000000000001000100000058
:10297A000000160320004920737461727465640AAA
:10298A000D004170707269636174696F6E20656EC3
:10299A006465640A0D005374617274696E6720532A
:1029AA0052414D20746573742E2E2E00577269742D
:1029BA0065207068617365206572726F723A20656E
:1029CA0078745F72616D5B2534645D203D2025302B
:1029DA003258202873686F756C6420626520253030
:1029EA003258290A0D0052657472696576616C2045
:1029FA007068617365206572726F723A20657874C7
:102A0A005F72616D5B2534645D203D20253032584C
:102A1A00202873686F756C642062652025303258EF
:102A2A00290A0D000D5352414D20746573742063B9
:102A3A006F6D706C657465642077697468200D2504
:102A4A003464206572726F727320696E20777269BE
:102A5A00746520706861736520616E64200D0A25B3
:102A6A003464206572726F727320696E20726574A5
:102A7A0072696576616C2070686173650D0D004C32
:102A8A006566740A0D0052696768740A0D00446F1E
:102A9A00776E0A0D0055700A0D004E6575747261E5
:102AAA006C0A0D004D454E5500504C415920474186
:102ABA004D453100504C41592047414D4532005057
:102ACA004C41592047414D453300504F53495449D1
:102ADA004F4E20320053544152542047414D450035
:102AEA00504F534954494F4E2033004558495400DA
:102AFA00504F534954494F4E2034005448452045BD
:102B0A004E440043414E53544154204552524F5271
:102B1A003A202578200A0D00497420697320696ECD
:102B2A002074686520636F6E666967206D6F6465DF
:102B3A000A0D004D6573736167652069643A202543
:102B4A00640A0D004D657373616765206C656E6775
:102B5A0074683A2025640A0D00446174613A20259C
:082B6A0064000A0A0D0D0000D1
:00000001FF
